{
  "contractName": "Auth",
  "abi": [
    {
      "anonymous": false,
      "inputs": [
        {
          "indexed": false,
          "internalType": "string",
          "name": "username",
          "type": "string"
        },
        {
          "indexed": false,
          "internalType": "string",
          "name": "email",
          "type": "string"
        },
        {
          "indexed": false,
          "internalType": "string",
          "name": "password",
          "type": "string"
        }
      ],
      "name": "userCreated",
      "type": "event"
    },
    {
      "inputs": [],
      "name": "userCount",
      "outputs": [
        {
          "internalType": "uint256",
          "name": "",
          "type": "uint256"
        }
      ],
      "stateMutability": "view",
      "type": "function",
      "constant": true
    },
    {
      "inputs": [
        {
          "internalType": "string",
          "name": "",
          "type": "string"
        }
      ],
      "name": "usersList",
      "outputs": [
        {
          "internalType": "string",
          "name": "username",
          "type": "string"
        },
        {
          "internalType": "string",
          "name": "email",
          "type": "string"
        },
        {
          "internalType": "string",
          "name": "password",
          "type": "string"
        }
      ],
      "stateMutability": "view",
      "type": "function",
      "constant": true
    },
    {
      "inputs": [
        {
          "internalType": "string",
          "name": "_username",
          "type": "string"
        },
        {
          "internalType": "string",
          "name": "_email",
          "type": "string"
        },
        {
          "internalType": "string",
          "name": "_password",
          "type": "string"
        }
      ],
      "name": "createUser",
      "outputs": [],
      "stateMutability": "nonpayable",
      "type": "function"
    }
  ],
  "bytecode": "0x60806040526000805534801561001457600080fd5b506108d1806100246000396000f3fe608060405234801561001057600080fd5b50600436106100415760003560e01c806307973ccf146100465780634cbce6ac1461006457806359ae069b14610096575b600080fd5b61004e6100b2565b60405161005b9190610436565b60405180910390f35b61007e600480360381019061007991906105ab565b6100b8565b60405161008d9392919061067c565b60405180910390f35b6100b060048036038101906100ab91906106c8565b610290565b005b60005481565b6001818051602081018201805184825260208301602085012081835280955050505050506000915090508060000180546100f19061079e565b80601f016020809104026020016040519081016040528092919081815260200182805461011d9061079e565b801561016a5780601f1061013f5761010080835404028352916020019161016a565b820191906000526020600020905b81548152906001019060200180831161014d57829003601f168201915b50505050509080600101805461017f9061079e565b80601f01602080910402602001604051908101604052809291908181526020018280546101ab9061079e565b80156101f85780601f106101cd576101008083540402835291602001916101f8565b820191906000526020600020905b8154815290600101906020018083116101db57829003601f168201915b50505050509080600201805461020d9061079e565b80601f01602080910402602001604051908101604052809291908181526020018280546102399061079e565b80156102865780601f1061025b57610100808354040283529160200191610286565b820191906000526020600020905b81548152906001019060200180831161026957829003601f168201915b5050505050905083565b6000808154809291906102a2906107ff565b91905055506040518060600160405280848152602001838152602001828152506001836040516102d29190610884565b908152602001604051809103902060008201518160000190805190602001906102fc92919061037a565b50602082015181600101908051906020019061031992919061037a565b50604082015181600201908051906020019061033692919061037a565b509050507fc50aadd178489c438b87db1b844b2d3380597c1c38fbcb15977a662c4404672e83838360405161036d9392919061067c565b60405180910390a1505050565b8280546103869061079e565b90600052602060002090601f0160209004810192826103a857600085556103ef565b82601f106103c157805160ff19168380011785556103ef565b828001600101855582156103ef579182015b828111156103ee5782518255916020019190600101906103d3565b5b5090506103fc9190610400565b5090565b5b80821115610419576000816000905550600101610401565b5090565b6000819050919050565b6104308161041d565b82525050565b600060208201905061044b6000830184610427565b92915050565b6000604051905090565b600080fd5b600080fd5b600080fd5b600080fd5b6000601f19601f8301169050919050565b7f4e487b7100000000000000000000000000000000000000000000000000000000600052604160045260246000fd5b6104b88261046f565b810181811067ffffffffffffffff821117156104d7576104d6610480565b5b80604052505050565b60006104ea610451565b90506104f682826104af565b919050565b600067ffffffffffffffff82111561051657610515610480565b5b61051f8261046f565b9050602081019050919050565b82818337600083830152505050565b600061054e610549846104fb565b6104e0565b90508281526020810184848401111561056a5761056961046a565b5b61057584828561052c565b509392505050565b600082601f83011261059257610591610465565b5b81356105a284826020860161053b565b91505092915050565b6000602082840312156105c1576105c061045b565b5b600082013567ffffffffffffffff8111156105df576105de610460565b5b6105eb8482850161057d565b91505092915050565b600081519050919050565b600082825260208201905092915050565b60005b8381101561062e578082015181840152602081019050610613565b8381111561063d576000848401525b50505050565b600061064e826105f4565b61065881856105ff565b9350610668818560208601610610565b6106718161046f565b840191505092915050565b600060608201905081810360008301526106968186610643565b905081810360208301526106aa8185610643565b905081810360408301526106be8184610643565b9050949350505050565b6000806000606084860312156106e1576106e061045b565b5b600084013567ffffffffffffffff8111156106ff576106fe610460565b5b61070b8682870161057d565b935050602084013567ffffffffffffffff81111561072c5761072b610460565b5b6107388682870161057d565b925050604084013567ffffffffffffffff81111561075957610758610460565b5b6107658682870161057d565b9150509250925092565b7f4e487b7100000000000000000000000000000000000000000000000000000000600052602260045260246000fd5b600060028204905060018216806107b657607f821691505b602082108114156107ca576107c961076f565b5b50919050565b7f4e487b7100000000000000000000000000000000000000000000000000000000600052601160045260246000fd5b600061080a8261041d565b91507fffffffffffffffffffffffffffffffffffffffffffffffffffffffffffffffff82141561083d5761083c6107d0565b5b600182019050919050565b600081905092915050565b600061085e826105f4565b6108688185610848565b9350610878818560208601610610565b80840191505092915050565b60006108908284610853565b91508190509291505056fea264697066735822122025eb396337aa2c856a2ea384c8996c3eaf1e7209e7a9dd236a3d9e4b316cd3dc64736f6c634300080c0033",
  "immutableReferences": {},
  "source": "// SPDX-License-Identifier: MIT\r\npragma solidity >=0.4.22 <0.9.0;\r\n\r\ncontract Auth{\r\n    \r\n    uint public userCount=0;\r\n\r\n    mapping(string => user) public usersList;\r\n\r\n     struct user{\r\n      string username;\r\n      string email;\r\n      string password;\r\n  }\r\n\r\n   // events\r\n\r\n   event userCreated(\r\n      string username,\r\n      string email,\r\n      string password\r\n    );\r\n\r\n  function createUser(string memory _username,string memory _email,string memory _password ) public {\r\n      \r\n        userCount++;\r\n\r\n        usersList[_email] = user(_username,_email,_password);\r\n      \r\n        emit userCreated(_username,_email,_password);\r\n    }\r\n\r\n\r\n}",
  "sourcePath": "C:\\Users\\jashwanth\\Desktop\\React JS projects\\gfg-chat-app\\src\\contracts\\Auth.sol",
  "compiler": {
    "name": "solc",
    "version": "0.8.12+commit.f00d7308.Emscripten.clang"
  },
  "schemaVersion": "3.4.8",
  "updatedAt": "2022-07-10T13:29:09.610Z",
  "networkType": "ethereum",
  "devdoc": {
    "kind": "dev",
    "methods": {},
    "version": 1
  },
  "userdoc": {
    "kind": "user",
    "methods": {},
    "version": 1
  }
}